{
  "contractName": "healthcare",
  "abi": [
    {
      "constant": true,
      "inputs": [],
      "name": "blockCount",
      "outputs": [
        {
          "name": "",
          "type": "uint256"
        }
      ],
      "payable": false,
      "stateMutability": "view",
      "type": "function",
      "signature": "0x07225b4d"
    },
    {
      "constant": true,
      "inputs": [
        {
          "name": "",
          "type": "uint256"
        }
      ],
      "name": "record",
      "outputs": [
        {
          "name": "patient_aadhar_number",
          "type": "uint256"
        },
        {
          "name": "patient_name",
          "type": "string"
        },
        {
          "name": "hashvalue",
          "type": "string"
        },
        {
          "name": "fever",
          "type": "uint256"
        },
        {
          "name": "oxygenLevel",
          "type": "uint256"
        },
        {
          "name": "uprn",
          "type": "uint256"
        },
        {
          "name": "doctor_name",
          "type": "string"
        },
        {
          "name": "patient_precription",
          "type": "string"
        },
        {
          "name": "flag",
          "type": "bool"
        }
      ],
      "payable": false,
      "stateMutability": "view",
      "type": "function",
      "signature": "0x2c16cd8a"
    },
    {
      "inputs": [],
      "payable": false,
      "stateMutability": "nonpayable",
      "type": "constructor",
      "signature": "constructor"
    },
    {
      "constant": false,
      "inputs": [
        {
          "name": "_patient_aadhar_number",
          "type": "uint256"
        },
        {
          "name": "_patient_name",
          "type": "string"
        },
        {
          "name": "_hashvalue",
          "type": "string"
        },
        {
          "name": "_fever",
          "type": "uint256"
        },
        {
          "name": "_oxygenLevel",
          "type": "uint256"
        },
        {
          "name": "_uprn",
          "type": "uint256"
        },
        {
          "name": "_doctor_name",
          "type": "string"
        },
        {
          "name": "_patient_precription",
          "type": "string"
        }
      ],
      "name": "addPatientBlock",
      "outputs": [],
      "payable": false,
      "stateMutability": "nonpayable",
      "type": "function",
      "signature": "0x62839656"
    },
    {
      "constant": true,
      "inputs": [
        {
          "name": "_patient_aadhar_number",
          "type": "uint256"
        }
      ],
      "name": "getPatientDetail",
      "outputs": [
        {
          "name": "",
          "type": "string"
        },
        {
          "name": "",
          "type": "string"
        },
        {
          "name": "",
          "type": "uint256"
        },
        {
          "name": "",
          "type": "uint256"
        },
        {
          "name": "",
          "type": "uint256"
        },
        {
          "name": "",
          "type": "string"
        },
        {
          "name": "",
          "type": "string"
        }
      ],
      "payable": false,
      "stateMutability": "view",
      "type": "function",
      "signature": "0xd65b76d5"
    },
    {
      "constant": false,
      "inputs": [],
      "name": "calcSeverity",
      "outputs": [],
      "payable": false,
      "stateMutability": "nonpayable",
      "type": "function",
      "signature": "0x98830769"
    },
    {
      "constant": true,
      "inputs": [],
      "name": "getAnalytics",
      "outputs": [
        {
          "name": "",
          "type": "uint256[3]"
        },
        {
          "name": "",
          "type": "uint256[]"
        },
        {
          "name": "",
          "type": "uint256[]"
        },
        {
          "name": "",
          "type": "uint256[]"
        }
      ],
      "payable": false,
      "stateMutability": "view",
      "type": "function",
      "signature": "0x0ccb2ec8"
    }
  ],
  "bytecode": "0x6080604052600080553480156200001557600080fd5b5062000114641cbe991a836040805190810160405280600681526020017f4b687573686900000000000000000000000000000000000000000000000000008152506040805190810160405280601681526020017f31323334353637383931323334353637383936343531000000000000000000008152506064603c6104d26040805190810160405280600d81526020017f44722e20416a6179204a61696e000000000000000000000000000000000000008152506040805190810160405280601581526020017f4f6e206f787967656e2c2072656d6465736976697200000000000000000000008152506200011a640100000000026401000000009004565b6200035e565b60015b60005481116200019e576040805160208082018c90528251808303820181528284018452805190820120600085815260018352849020546060808501919091528451808503909101815260809093019093528151910120141562000195576000818152600160205260409020600801805460ff191690555b6001016200011d565b5060008054600190810180835560408051610120810182528c815260208082018d81528284018d9052606083018c9052608083018b905260a083018a905260c0830189905260e08301889052610100830186905293865284815291909420845181559151805192936200021a93908501929190910190620002b9565b506040820151805162000238916002840191602090910190620002b9565b50606082015160038201556080820151600482015560a0820151600582015560c0820151805162000274916006840191602090910190620002b9565b5060e0820151805162000292916007840191602090910190620002b9565b5061010091909101516008909101805460ff19169115159190911790555050505050505050565b828054600181600116156101000203166002900490600052602060002090601f016020900481019282601f10620002fc57805160ff19168380011785556200032c565b828001600101855582156200032c579182015b828111156200032c5782518255916020019190600101906200030f565b506200033a9291506200033e565b5090565b6200035b91905b808211156200033a576000815560010162000345565b90565b61137c806200036e6000396000f3fe6080604052600436106100775763ffffffff7c010000000000000000000000000000000000000000000000000000000060003504166307225b4d811461007c5780630ccb2ec8146100a35780632c16cd8a146101bf57806362839656146103ba578063988307691461061e578063d65b76d514610633575b600080fd5b34801561008857600080fd5b5061009161081c565b60408051918252519081900360200190f35b3480156100af57600080fd5b506100b8610822565b6040518085606080838360005b838110156100dd5781810151838201526020016100c5565b50505050905001806020018060200180602001848103845287818151815260200191508051906020019060200280838360005b83811015610128578181015183820152602001610110565b50505050905001848103835286818151815260200191508051906020019060200280838360005b8381101561016757818101518382015260200161014f565b50505050905001848103825285818151815260200191508051906020019060200280838360005b838110156101a657818101518382015260200161018e565b5050505090500197505050505050505060405180910390f35b3480156101cb57600080fd5b506101e9600480360360208110156101e257600080fd5b503561096d565b604051808a8152602001806020018060200189815260200188815260200187815260200180602001806020018615151515815260200185810385528d818151815260200191508051906020019080838360005b8381101561025457818101518382015260200161023c565b50505050905090810190601f1680156102815780820380516001836020036101000a031916815260200191505b5085810384528c5181528c516020918201918e019080838360005b838110156102b457818101518382015260200161029c565b50505050905090810190601f1680156102e15780820380516001836020036101000a031916815260200191505b5085810383528851815288516020918201918a019080838360005b838110156103145781810151838201526020016102fc565b50505050905090810190601f1680156103415780820380516001836020036101000a031916815260200191505b50858103825287518152875160209182019189019080838360005b8381101561037457818101518382015260200161035c565b50505050905090810190601f1680156103a15780820380516001836020036101000a031916815260200191505b509d505050505050505050505050505060405180910390f35b3480156103c657600080fd5b5061061c60048036036101008110156103de57600080fd5b8135919081019060408101602082013564010000000081111561040057600080fd5b82018360208201111561041257600080fd5b8035906020019184600183028401116401000000008311171561043457600080fd5b91908080601f016020809104026020016040519081016040528093929190818152602001838380828437600092019190915250929594936020810193503591505064010000000081111561048757600080fd5b82018360208201111561049957600080fd5b803590602001918460018302840111640100000000831117156104bb57600080fd5b91908080601f016020809104026020016040519081016040528093929190818152602001838380828437600092019190915250929584359560208601359560408101359550919350915060808101906060013564010000000081111561052057600080fd5b82018360208201111561053257600080fd5b8035906020019184600183028401116401000000008311171561055457600080fd5b91908080601f01602080910402602001604051908101604052809392919081815260200183838082843760009201919091525092959493602081019350359150506401000000008111156105a757600080fd5b8201836020820111156105b957600080fd5b803590602001918460018302840111640100000000831117156105db57600080fd5b91908080601f016020809104026020016040519081016040528093929190818152602001838380828437600092019190915250929550610be3945050505050565b005b34801561062a57600080fd5b5061061c610d77565b34801561063f57600080fd5b5061065d6004803603602081101561065657600080fd5b5035610f77565b604051808060200180602001888152602001878152602001868152602001806020018060200185810385528c818151815260200191508051906020019080838360005b838110156106b85781810151838201526020016106a0565b50505050905090810190601f1680156106e55780820380516001836020036101000a031916815260200191505b5085810384528b5181528b516020918201918d019080838360005b83811015610718578181015183820152602001610700565b50505050905090810190601f1680156107455780820380516001836020036101000a031916815260200191505b50858103835287518152875160209182019189019080838360005b83811015610778578181015183820152602001610760565b50505050905090810190601f1680156107a55780820380516001836020036101000a031916815260200191505b50858103825286518152865160209182019188019080838360005b838110156107d85781810151838201526020016107c0565b50505050905090810190601f1680156108055780820380516001836020036101000a031916815260200191505b509b50505050505050505050505060405180910390f35b60005481565b61082a611296565b6040805160608082019283905291829182916005916002916004916003918590839082845b81548152602001906001019080831161084f5750505050509350828054806020026020016040519081016040528092919081815260200182805480156108b457602002820191906000526020600020905b8154815260200190600101908083116108a0575b505050505092508180548060200260200160405190810160405280929190818152602001828054801561090657602002820191906000526020600020905b8154815260200190600101908083116108f2575b505050505091508080548060200260200160405190810160405280929190818152602001828054801561095857602002820191906000526020600020905b815481526020019060010190808311610944575b50505050509050935093509350935090919293565b600160208181526000928352604092839020805481840180548651600296821615610100026000190190911695909504601f81018590048502860185019096528585529094919392909190830182828015610a095780601f106109de57610100808354040283529160200191610a09565b820191906000526020600020905b8154815290600101906020018083116109ec57829003601f168201915b50505060028085018054604080516020601f6000196101006001871615020190941695909504928301859004850281018501909152818152959695945090925090830182828015610a9b5780601f10610a7057610100808354040283529160200191610a9b565b820191906000526020600020905b815481529060010190602001808311610a7e57829003601f168201915b505050600384015460048501546005860154600687018054604080516020601f60026000196101006001881615020190951694909404938401819004810282018101909252828152989995989497509295509091830182828015610b405780601f10610b1557610100808354040283529160200191610b40565b820191906000526020600020905b815481529060010190602001808311610b2357829003601f168201915b5050505060078301805460408051602060026001851615610100026000190190941693909304601f8101849004840282018401909252818152949594935090830182828015610bd05780601f10610ba557610100808354040283529160200191610bd0565b820191906000526020600020905b815481529060010190602001808311610bb357829003601f168201915b5050506008909301549192505060ff1689565b60015b6000548111610c64576040805160208082018c905282518083038201815282840184528051908201206000858152600183528490205460608085019190915284518085039091018152608090930190935281519101201415610c5c576000818152600160205260409020600801805460ff191690555b600101610be6565b5060008054600190810180835560408051610120810182528c815260208082018d81528284018d9052606083018c9052608083018b905260a083018a905260c0830189905260e0830188905261010083018690529386528481529190942084518155915180519293610cde939085019291909101906112b5565b5060408201518051610cfa9160028401916020909101906112b5565b50606082015160038201556080820151600482015560a0820151600582015560c08201518051610d349160068401916020909101906112b5565b5060e08201518051610d509160078401916020909101906112b5565b5061010091909101516008909101805460ff19169115159190911790555050505050505050565b6000808060015b6000548111610f655760008181526001602081905260409091206008015460ff1615151415610f5d57600081815260016020526040902060040154604b1115610e0e57600081815260016020819052604082205460028054808401825593527f405787fa12a823e0f2b7631cc41b3ba8828b3321ca811111fa75cd3aa3bb5ace9092019190915590930192610f5d565b6000818152600160205260409020600401546055118015610e405750600081815260016020526040902060040154604b105b15610efa5760008181526001602052604090206003015460661015610eac57600081815260016020819052604082205460028054808401825593527f405787fa12a823e0f2b7631cc41b3ba8828b3321ca811111fa75cd3aa3bb5ace9092019190915590930192610ef5565b600081815260016020819052604082205460048054808401825593527f8a35acfbc15ff81a39ae7d344fd709f28e8600b4aa8c65c6b64bfe7fe36bd19b90920191909155909101905b610f5d565b60008181526001602052604090206004015460551015610f5d57600081815260016020819052604082205460038054808401825593527fc2575a0e9e593c00f959f8c92f12db2869c3395a3b0502d05e2516446f71f85b90920191909155909201915b600101610d7e565b50600592909255600691909155600755565b60608060008080838060015b6000548111611289576040805160208082018c90528251808303820181528284018452805190820120600085815260018352849020546060808501919091528451808503909101815260809093019093528151910120148015610ffd575060008181526001602081905260409091206008015460ff161515145b1561128157600081815260016020818152604092839020600381015460048201546005830154838601805488516002988216156101000260001901909116889004601f810188900488028201880190995288815290979685019693959294919360068301936007909301928991908301828280156110bc5780601f10611091576101008083540402835291602001916110bc565b820191906000526020600020905b81548152906001019060200180831161109f57829003601f168201915b5050895460408051602060026001851615610100026000190190941693909304601f8101849004840282018401909252818152959c508b94509250840190508282801561114a5780601f1061111f5761010080835404028352916020019161114a565b820191906000526020600020905b81548152906001019060200180831161112d57829003601f168201915b5050855460408051602060026001851615610100026000190190941693909304601f8101849004840282018401909252818152959b50879450925084019050828280156111d85780601f106111ad576101008083540402835291602001916111d8565b820191906000526020600020905b8154815290600101906020018083116111bb57829003601f168201915b5050845460408051602060026001851615610100026000190190941693909304601f8101849004840282018401909252818152959750869450925084019050828280156112665780601f1061123b57610100808354040283529160200191611266565b820191906000526020600020905b81548152906001019060200180831161124957829003601f168201915b5050505050905097509750975097509750975097505061128b565b600101610f83565b505b919395979092949650565b6060604051908101604052806003906020820280388339509192915050565b828054600181600116156101000203166002900490600052602060002090601f016020900481019282601f106112f657805160ff1916838001178555611323565b82800160010185558215611323579182015b82811115611323578251825591602001919060010190611308565b5061132f929150611333565b5090565b61134d91905b8082111561132f5760008155600101611339565b9056fea165627a7a7230582081827e5d75f723d6115e8fd0d69c3f216fbbab908efe79628d525c0272dd54fd0029",
  "source": "pragma solidity ^0.5.0;\n\ncontract healthcare {\n\tuint public blockCount = 0;\n\n\t struct patientBlock {\n        uint patient_aadhar_number;\n        string patient_name;\n\n        string hashvalue;\n\n        uint fever;\n        uint oxygenLevel;\n\n        uint uprn;\n        string doctor_name;\n\n        string patient_precription;\n\n        bool flag;\n\n    }\n\n     mapping(uint=>patientBlock) public record;\n\n     constructor() public {\n     \taddPatientBlock(123456789123,\n     \t\t\"Khushi\",\n     \t\t \"1234567891234567896451\",\n     \t\t 100,\n     \t\t 60,\n     \t\t 1234,\n     \t\t \"Dr. Ajay Jain\",\n     \t\t \"On oxygen, remdesivir\"\n     \t\t);\n     }\n\n     function addPatientBlock (\n     \tuint _patient_aadhar_number,\n        string memory _patient_name,\n\t\tstring memory _hashvalue,\n        uint _fever,\n        uint _oxygenLevel,\n\t\tuint _uprn,\n        string memory  _doctor_name,\n\t\tstring memory  _patient_precription\n\t\t)public{\n\n     \tfor(uint i=1; i<=blockCount; i++){\n     \t\tif (keccak256(abi.encodePacked(record[i].patient_aadhar_number)) == keccak256(abi.encodePacked(_patient_aadhar_number))){\n     \t\t\trecord[i].flag=false;\n     \t\t}\n     \t}\n\n     \tblockCount++;\n     \trecord[blockCount] = patientBlock(_patient_aadhar_number,\n     \t\t\t\t\t\t\t\t\t  _patient_name,\n     \t\t\t\t\t\t\t\t\t  _hashvalue,\n     \t\t\t\t\t\t\t\t\t  _fever,\n     \t\t\t\t\t\t\t\t\t  _oxygenLevel,\n     \t\t\t\t\t\t\t\t\t  _uprn,\n     \t\t\t\t\t\t\t\t\t  _doctor_name,\n     \t\t\t\t\t\t\t\t\t  _patient_precription,\n     \t\t\t\t\t\t\t\t\t  true);\n     }\n\n     function getPatientDetail(\n     \tuint _patient_aadhar_number)\n     view public returns(\n     \t string memory ,\n     \t string memory,\n     \t uint,\n     \t uint,\n     \t uint,\n     \t string memory,\n     \t string memory\n\t\t){\n     \t for(uint i=1; i<=blockCount; i++)\n            {\n            \tif (keccak256(abi.encodePacked(record[i].patient_aadhar_number)) == keccak256(abi.encodePacked(_patient_aadhar_number))\n            \t   && record[i].flag==true){\n            \t\treturn (record[i].patient_name,\n            \t\t\t    record[i].hashvalue,\n            \t\t\t    record[i].fever,\n            \t\t\t    record[i].oxygenLevel,\n            \t\t\t    record[i].uprn,\n            \t\t\t    record[i].doctor_name,\n            \t\t\t    record[i].patient_precription);\n            \t}\n            }\n\n\n     }\n     uint [] high;\n     uint [] low;\n     uint [] medium;\n     uint [3] severity;\n    function calcSeverity() public{\n        uint h=0;\n        uint l=0;\n        uint m=0;\n        for(uint i=1;i<=blockCount;i++){\n            if(record[i].flag==true){\n                if(record[i].oxygenLevel<75){\n                   h++;\n                    high.push(record[i].patient_aadhar_number);\n                }\n                else if(record[i].oxygenLevel<85 && record[i].oxygenLevel>75){\n                    if(record[i].fever>102){\n                       h++;\n                        high.push(record[i].patient_aadhar_number);\n                    }\n                    else {\n                        m++;\n                        medium.push(record[i].patient_aadhar_number);\n                    }\n                }\n                else if(record[i].oxygenLevel>85){\n                    l++;\n                   low.push(record[i].patient_aadhar_number);\n                }\n            }\n        }\n        severity[0]=h;\n        severity[1]=m;\n        severity[2]=l;\n    }\n    function getAnalytics() view public returns(uint [3] memory,uint [] memory,uint[] memory, uint[] memory){\n        return(severity,high,medium,low);\n    }\n}",
  "sourcePath": "C:/Users/ADMIN/Desktop/ISM Project/contracts/healthcare.sol",
  "compiler": {
    "name": "solc",
    "version": "0.5.0+commit.1d4f565a.Emscripten.clang"
  },
  "schemaVersion": "3.0.1",
  "updatedAt": "2021-06-09T10:53:49.495Z",
  "devdoc": {
    "methods": {}
  },
  "userdoc": {
    "methods": {}
  }
}